{
  "contractName": "Auction",
  "abi": [
    {
      "constant": true,
      "inputs": [],
      "name": "seller",
      "outputs": [
        {
          "name": "",
          "type": "address"
        }
      ],
      "payable": false,
      "stateMutability": "view",
      "type": "function"
    },
    {
      "constant": true,
      "inputs": [],
      "name": "manager",
      "outputs": [
        {
          "name": "",
          "type": "address"
        }
      ],
      "payable": false,
      "stateMutability": "view",
      "type": "function"
    },
    {
      "constant": true,
      "inputs": [],
      "name": "latestBid",
      "outputs": [
        {
          "name": "",
          "type": "uint256"
        }
      ],
      "payable": false,
      "stateMutability": "view",
      "type": "function"
    },
    {
      "constant": true,
      "inputs": [],
      "name": "latestBidder",
      "outputs": [
        {
          "name": "",
          "type": "address"
        }
      ],
      "payable": false,
      "stateMutability": "view",
      "type": "function"
    },
    {
      "inputs": [],
      "payable": false,
      "stateMutability": "nonpayable",
      "type": "constructor"
    },
    {
      "constant": false,
      "inputs": [
        {
          "name": "bid",
          "type": "uint256"
        }
      ],
      "name": "auction",
      "outputs": [],
      "payable": false,
      "stateMutability": "nonpayable",
      "type": "function"
    },
    {
      "constant": false,
      "inputs": [],
      "name": "bid",
      "outputs": [],
      "payable": true,
      "stateMutability": "payable",
      "type": "function"
    },
    {
      "constant": false,
      "inputs": [],
      "name": "finishAuction",
      "outputs": [],
      "payable": false,
      "stateMutability": "nonpayable",
      "type": "function"
    }
  ],
  "bytecode": "0x608060405234801561001057600080fd5b50336000806101000a81548173ffffffffffffffffffffffffffffffffffffffff021916908373ffffffffffffffffffffffffffffffffffffffff1602179055506104e3806100606000396000f300608060405260043610610083576000357c0100000000000000000000000000000000000000000000000000000000900463ffffffff16806308551a53146100885780631200617f146100df5780631998aeef1461010c578063430ca46f14610116578063481c6a751461012d5780635dd672ec1461018457806367a884e5146101af575b600080fd5b34801561009457600080fd5b5061009d610206565b604051808273ffffffffffffffffffffffffffffffffffffffff1673ffffffffffffffffffffffffffffffffffffffff16815260200191505060405180910390f35b3480156100eb57600080fd5b5061010a6004803603810190808035906020019092919050505061022c565b005b610114610281565b005b34801561012257600080fd5b5061012b610389565b005b34801561013957600080fd5b50610142610466565b604051808273ffffffffffffffffffffffffffffffffffffffff1673ffffffffffffffffffffffffffffffffffffffff16815260200191505060405180910390f35b34801561019057600080fd5b5061019961048b565b6040518082815260200191505060405180910390f35b3480156101bb57600080fd5b506101c4610491565b604051808273ffffffffffffffffffffffffffffffffffffffff1673ffffffffffffffffffffffffffffffffffffffff16815260200191505060405180910390f35b600160009054906101000a900473ffffffffffffffffffffffffffffffffffffffff1681565b670de0b6b3a7640000810260028190555033600160006101000a81548173ffffffffffffffffffffffffffffffffffffffff021916908373ffffffffffffffffffffffffffffffffffffffff16021790555050565b6002543411151561029157600080fd5b6000600360009054906101000a900473ffffffffffffffffffffffffffffffffffffffff1673ffffffffffffffffffffffffffffffffffffffff1614151561033f57600360009054906101000a900473ffffffffffffffffffffffffffffffffffffffff1673ffffffffffffffffffffffffffffffffffffffff166108fc6002549081150290604051600060405180830381858888f1935050505015801561033d573d6000803e3d6000fd5b505b33600360006101000a81548173ffffffffffffffffffffffffffffffffffffffff021916908373ffffffffffffffffffffffffffffffffffffffff16021790555034600281905550565b6000809054906101000a900473ffffffffffffffffffffffffffffffffffffffff1673ffffffffffffffffffffffffffffffffffffffff163373ffffffffffffffffffffffffffffffffffffffff161415156103e457600080fd5b600160009054906101000a900473ffffffffffffffffffffffffffffffffffffffff1673ffffffffffffffffffffffffffffffffffffffff166108fc3073ffffffffffffffffffffffffffffffffffffffff16319081150290604051600060405180830381858888f19350505050158015610463573d6000803e3d6000fd5b50565b6000809054906101000a900473ffffffffffffffffffffffffffffffffffffffff1681565b60025481565b600360009054906101000a900473ffffffffffffffffffffffffffffffffffffffff16815600a165627a7a72305820d9e4db7dcbc454c01c8ded9db4ade0796aa35d550ac4ed6ec96cf197c90382190029",
  "source": "pragma solidity ^0.4.19;//which compiler can be used\r\n//this smart contract represents an auction house\r\ncontract Auction {\r\n  address public manager;\r\n  address public seller;\r\n  uint public latestBid;\r\n  address public latestBidder;\r\n \r\n  constructor() public {//This constructor is a special function that is run initially when the contract is deployed.\r\n    manager = msg.sender;\r\n  }\r\n \r\n  function auction(uint bid) public {//write the function to set the initial amount of bid.\r\n    latestBid = bid * 1 ether; //1000000000000000000;\r\n    seller = msg.sender;\r\n  }\r\n \r\n  function bid() public payable {\r\n    require(msg.value > latestBid);\r\n \r\n    if (latestBidder != 0x0) { //proviso if there is no bid\r\n      latestBidder.transfer(latestBid);\r\n    }\r\n    latestBidder = msg.sender;\r\n    latestBid = msg.value;\r\n  }\r\n \r\n  function finishAuction() restricted public {\r\n    seller.transfer(address(this).balance);\r\n  }\r\n \r\n  modifier restricted() {\r\n    require(msg.sender == manager);\r\n    _;\r\n  }\r\n}",
  "sourcePath": "C:\\Users\\ongajong\\Documents\\Blockchain\\Auction\\contracts\\Auction.sol",
  "compiler": {
    "name": "solc",
    "version": "0.4.24+commit.e67f0147.Emscripten.clang"
  },
  "schemaVersion": "2.0.1",
  "updatedAt": "2018-12-02T15:10:46.446Z"
}